{
  "contractName": "Auction",
  "abi": [
    {
      "inputs": [
        {
          "internalType": "uint256",
          "name": "_biddingTime",
          "type": "uint256"
        }
      ],
      "payable": false,
      "stateMutability": "nonpayable",
      "type": "constructor"
    },
    {
      "anonymous": false,
      "inputs": [
        {
          "indexed": true,
          "internalType": "address",
          "name": "highestBidder",
          "type": "address"
        },
        {
          "indexed": false,
          "internalType": "uint256",
          "name": "highestBid",
          "type": "uint256"
        }
      ],
      "name": "BidEvent",
      "type": "event"
    },
    {
      "anonymous": false,
      "inputs": [
        {
          "indexed": false,
          "internalType": "address",
          "name": "withdrawer",
          "type": "address"
        },
        {
          "indexed": false,
          "internalType": "uint256",
          "name": "amount",
          "type": "uint256"
        }
      ],
      "name": "WithdrawalEvent",
      "type": "event"
    },
    {
      "constant": true,
      "inputs": [],
      "name": "Nonft",
      "outputs": [
        {
          "internalType": "uint256",
          "name": "id",
          "type": "uint256"
        },
        {
          "internalType": "string",
          "name": "name",
          "type": "string"
        },
        {
          "internalType": "address",
          "name": "owner",
          "type": "address"
        }
      ],
      "payable": false,
      "stateMutability": "view",
      "type": "function"
    },
    {
      "constant": true,
      "inputs": [],
      "name": "auction_end",
      "outputs": [
        {
          "internalType": "uint256",
          "name": "",
          "type": "uint256"
        }
      ],
      "payable": false,
      "stateMutability": "view",
      "type": "function"
    },
    {
      "constant": true,
      "inputs": [
        {
          "internalType": "address",
          "name": "",
          "type": "address"
        }
      ],
      "name": "bids",
      "outputs": [
        {
          "internalType": "uint256",
          "name": "",
          "type": "uint256"
        }
      ],
      "payable": false,
      "stateMutability": "view",
      "type": "function"
    },
    {
      "constant": true,
      "inputs": [],
      "name": "highestBid",
      "outputs": [
        {
          "internalType": "uint256",
          "name": "",
          "type": "uint256"
        }
      ],
      "payable": false,
      "stateMutability": "view",
      "type": "function"
    },
    {
      "constant": true,
      "inputs": [],
      "name": "highestBidder",
      "outputs": [
        {
          "internalType": "address payable",
          "name": "",
          "type": "address"
        }
      ],
      "payable": false,
      "stateMutability": "view",
      "type": "function"
    },
    {
      "constant": true,
      "inputs": [
        {
          "internalType": "address",
          "name": "user",
          "type": "address"
        }
      ],
      "name": "AddressId",
      "outputs": [
        {
          "internalType": "uint256",
          "name": "",
          "type": "uint256"
        }
      ],
      "payable": false,
      "stateMutability": "pure",
      "type": "function"
    },
    {
      "constant": false,
      "inputs": [
        {
          "internalType": "uint256",
          "name": "id",
          "type": "uint256"
        },
        {
          "internalType": "string",
          "name": "name",
          "type": "string"
        },
        {
          "internalType": "string",
          "name": "nfturl",
          "type": "string"
        }
      ],
      "name": "createAsset",
      "outputs": [],
      "payable": false,
      "stateMutability": "nonpayable",
      "type": "function"
    },
    {
      "constant": true,
      "inputs": [],
      "name": "getAuctionDetails",
      "outputs": [
        {
          "internalType": "uint256",
          "name": "",
          "type": "uint256"
        },
        {
          "internalType": "uint256",
          "name": "",
          "type": "uint256"
        },
        {
          "internalType": "address",
          "name": "",
          "type": "address"
        },
        {
          "internalType": "address",
          "name": "",
          "type": "address"
        }
      ],
      "payable": false,
      "stateMutability": "view",
      "type": "function"
    },
    {
      "constant": true,
      "inputs": [
        {
          "internalType": "uint256",
          "name": "id",
          "type": "uint256"
        }
      ],
      "name": "getPdf",
      "outputs": [
        {
          "internalType": "string",
          "name": "nfturl",
          "type": "string"
        }
      ],
      "payable": false,
      "stateMutability": "view",
      "type": "function"
    },
    {
      "constant": false,
      "inputs": [],
      "name": "bid",
      "outputs": [
        {
          "internalType": "bool",
          "name": "",
          "type": "bool"
        }
      ],
      "payable": true,
      "stateMutability": "payable",
      "type": "function"
    },
    {
      "constant": true,
      "inputs": [],
      "name": "auction_status",
      "outputs": [
        {
          "internalType": "bool",
          "name": "state",
          "type": "bool"
        }
      ],
      "payable": false,
      "stateMutability": "view",
      "type": "function"
    },
    {
      "constant": false,
      "inputs": [],
      "name": "getAmount",
      "outputs": [
        {
          "internalType": "bool",
          "name": "",
          "type": "bool"
        }
      ],
      "payable": false,
      "stateMutability": "nonpayable",
      "type": "function"
    },
    {
      "constant": false,
      "inputs": [],
      "name": "withdraw",
      "outputs": [
        {
          "internalType": "bool",
          "name": "",
          "type": "bool"
        }
      ],
      "payable": false,
      "stateMutability": "nonpayable",
      "type": "function"
    }
  ],
  "bytecode": "0x608060405234801561001057600080fd5b506040516116533803806116538339818101604052602081101561003357600080fd5b8101908080519060200190929190505050336000806101000a81548173ffffffffffffffffffffffffffffffffffffffff021916908373ffffffffffffffffffffffffffffffffffffffff160217905550603c810242016001819055506000809054906101000a900473ffffffffffffffffffffffffffffffffffffffff16600460020160006101000a81548173ffffffffffffffffffffffffffffffffffffffff021916908373ffffffffffffffffffffffffffffffffffffffff1602179055505061154e806101056000396000f3fe6080604052600436106100c25760003560e01c806362ea82db1161007f578063b62d8ec211610059578063b62d8ec2146105b8578063c458b65a146105e7578063d321fe2914610612578063d57bde7914610641576100c2565b806362ea82db146104485780638b3501a4146104ad57806391f9015714610561576100c2565b806303c88709146100c7578063143fed0c146101915780631998aeef146101f65780633a6dcea2146102185780633ccfd60b146102b057806358d932c9146102df575b600080fd5b3480156100d357600080fd5b506100dc61066c565b60405180848152602001806020018373ffffffffffffffffffffffffffffffffffffffff1673ffffffffffffffffffffffffffffffffffffffff168152602001828103825284818151815260200191508051906020019080838360005b83811015610154578082015181840152602081019050610139565b50505050905090810190601f1680156101815780820380516001836020036101000a031916815260200191505b5094505050505060405180910390f35b34801561019d57600080fd5b506101e0600480360360208110156101b457600080fd5b81019080803573ffffffffffffffffffffffffffffffffffffffff16906020019092919050505061073c565b6040518082815260200191505060405180910390f35b6101fe6107ac565b604051808215151515815260200191505060405180910390f35b34801561022457600080fd5b5061022d610bea565b604051808581526020018481526020018373ffffffffffffffffffffffffffffffffffffffff1673ffffffffffffffffffffffffffffffffffffffff1681526020018273ffffffffffffffffffffffffffffffffffffffff1673ffffffffffffffffffffffffffffffffffffffff16815260200194505050505060405180910390f35b3480156102bc57600080fd5b506102c5610c4c565b604051808215151515815260200191505060405180910390f35b3480156102eb57600080fd5b506104466004803603606081101561030257600080fd5b81019080803590602001909291908035906020019064010000000081111561032957600080fd5b82018360208201111561033b57600080fd5b8035906020019184600183028401116401000000008311171561035d57600080fd5b91908080601f016020809104026020016040519081016040528093929190818152602001838380828437600081840152601f19601f820116905080830192505050505050509192919290803590602001906401000000008111156103c057600080fd5b8201836020820111156103d257600080fd5b803590602001918460018302840111640100000000831117156103f457600080fd5b91908080601f016020809104026020016040519081016040528093929190818152602001838380828437600081840152601f19601f820116905080830192505050505050509192919290505050610e24565b005b34801561045457600080fd5b506104976004803603602081101561046b57600080fd5b81019080803573ffffffffffffffffffffffffffffffffffffffff169060200190929190505050610f45565b6040518082815260200191505060405180910390f35b3480156104b957600080fd5b506104e6600480360360208110156104d057600080fd5b8101908080359060200190929190505050610f5d565b6040518080602001828103825283818151815260200191508051906020019080838360005b8381101561052657808201518184015260208101905061050b565b50505050905090810190601f1680156105535780820380516001836020036101000a031916815260200191505b509250505060405180910390f35b34801561056d57600080fd5b506105766110c6565b604051808273ffffffffffffffffffffffffffffffffffffffff1673ffffffffffffffffffffffffffffffffffffffff16815260200191505060405180910390f35b3480156105c457600080fd5b506105cd6110ec565b604051808215151515815260200191505060405180910390f35b3480156105f357600080fd5b506105fc6110f8565b6040518082815260200191505060405180910390f35b34801561061e57600080fd5b506106276110fe565b604051808215151515815260200191505060405180910390f35b34801561064d57600080fd5b50610656611424565b6040518082815260200191505060405180910390f35b6004806000015490806001018054600181600116156101000203166002900480601f01602080910402602001604051908101604052809291908181526020018280546001816001161561010002031660029004801561070c5780601f106106e15761010080835404028352916020019161070c565b820191906000526020600020905b8154815290600101906020018083116106ef57829003601f168201915b5050505050908060020160009054906101000a900473ffffffffffffffffffffffffffffffffffffffff16905083565b60006402540be40082604051602001808273ffffffffffffffffffffffffffffffffffffffff1673ffffffffffffffffffffffffffffffffffffffff1660601b81526014019150506040516020818303038152906040528051906020012060001c816107a457fe5b069050919050565b6000600154421115610826576040517f08c379a000000000000000000000000000000000000000000000000000000000815260040180806020018281038252600f8152602001807f61756374696f6e2074696d656f7574000000000000000000000000000000000081525060200191505060405180910390fd5b60025434600960003373ffffffffffffffffffffffffffffffffffffffff1673ffffffffffffffffffffffffffffffffffffffff1681526020019081526020016000205401116108de576040517f08c379a000000000000000000000000000000000000000000000000000000000815260040180806020018281038252601d8152602001807f63616e742774206269642c206d616b652061206869676865722042696400000081525060200191505060405180910390fd5b6000809054906101000a900473ffffffffffffffffffffffffffffffffffffffff1673ffffffffffffffffffffffffffffffffffffffff163373ffffffffffffffffffffffffffffffffffffffff1614156109a1576040517f08c379a00000000000000000000000000000000000000000000000000000000081526004018080602001828103825260168152602001807f41756374696f6e206f776e65722063616e74206269640000000000000000000081525060200191505060405180910390fd5b600360009054906101000a900473ffffffffffffffffffffffffffffffffffffffff1673ffffffffffffffffffffffffffffffffffffffff163373ffffffffffffffffffffffffffffffffffffffff161415610a65576040517f08c379a000000000000000000000000000000000000000000000000000000000815260040180806020018281038252601e8152602001807f43757272656e7420486967686573744269646465722063616e7420626964000081525060200191505060405180910390fd5b33600360006101000a81548173ffffffffffffffffffffffffffffffffffffffff021916908373ffffffffffffffffffffffffffffffffffffffff16021790555034600960003373ffffffffffffffffffffffffffffffffffffffff1673ffffffffffffffffffffffffffffffffffffffff1681526020019081526020016000205401600960003373ffffffffffffffffffffffffffffffffffffffff1673ffffffffffffffffffffffffffffffffffffffff16815260200190815260200160002081905550600960003373ffffffffffffffffffffffffffffffffffffffff1673ffffffffffffffffffffffffffffffffffffffff16815260200190815260200160002054600281905550600360009054906101000a900473ffffffffffffffffffffffffffffffffffffffff1673ffffffffffffffffffffffffffffffffffffffff167f0d993d4f8a84158f5329713d6d13ef54e77b325040c887c8b3e565cfd0cd3e216002546040518082815260200191505060405180910390a26001905090565b600080600080600154600254600360009054906101000a900473ffffffffffffffffffffffffffffffffffffffff166000809054906101000a900473ffffffffffffffffffffffffffffffffffffffff16819150935093509350935090919293565b60008060009054906101000a900473ffffffffffffffffffffffffffffffffffffffff1673ffffffffffffffffffffffffffffffffffffffff163373ffffffffffffffffffffffffffffffffffffffff1614610ca757600080fd5b6001544211610d01576040517f08c379a00000000000000000000000000000000000000000000000000000000081526004018080602001828103825260258152602001806114d06025913960400191505060405180910390fd5b3373ffffffffffffffffffffffffffffffffffffffff166108fc6002549081150290604051600060405180830381858888f19350505050158015610d49573d6000803e3d6000fd5b50600360009054906101000a900473ffffffffffffffffffffffffffffffffffffffff16600460020160006101000a81548173ffffffffffffffffffffffffffffffffffffffff021916908373ffffffffffffffffffffffffffffffffffffffff1602179055507f2f174ca282119315c59efaf21147aef438581dabdeb498198ae28964373dd8bc33600254604051808373ffffffffffffffffffffffffffffffffffffffff1673ffffffffffffffffffffffffffffffffffffffff1681526020018281526020019250505060405180910390a16001905090565b6000809054906101000a900473ffffffffffffffffffffffffffffffffffffffff1673ffffffffffffffffffffffffffffffffffffffff163373ffffffffffffffffffffffffffffffffffffffff1614610e7d57600080fd5b82600760008581526020019081526020016000206000018190555081600760008581526020019081526020016000206001019080519060200190610ec292919061142a565b5080600860008581526020019081526020016000209080519060200190610eea92919061142a565b50336007600085815260200190815260200160002060020160006101000a81548173ffffffffffffffffffffffffffffffffffffffff021916908373ffffffffffffffffffffffffffffffffffffffff160217905550505050565b60096020528060005260406000206000915090505481565b6060600360009054906101000a900473ffffffffffffffffffffffffffffffffffffffff1673ffffffffffffffffffffffffffffffffffffffff163373ffffffffffffffffffffffffffffffffffffffff1614610fb957600080fd5b6001544211611013576040517f08c379a00000000000000000000000000000000000000000000000000000000081526004018080602001828103825260258152602001806114f56025913960400191505060405180910390fd5b600860008381526020019081526020016000208054600181600116156101000203166002900480601f0160208091040260200160405190810160405280929190818152602001828054600181600116156101000203166002900480156110ba5780601f1061108f576101008083540402835291602001916110ba565b820191906000526020600020905b81548152906001019060200180831161109d57829003601f168201915b50505050509050919050565b600360009054906101000a900473ffffffffffffffffffffffffffffffffffffffff1681565b60006001544210905090565b60015481565b6000600154421161115a576040517f08c379a00000000000000000000000000000000000000000000000000000000081526004018080602001828103825260258152602001806114d06025913960400191505060405180910390fd5b6000809054906101000a900473ffffffffffffffffffffffffffffffffffffffff1673ffffffffffffffffffffffffffffffffffffffff163373ffffffffffffffffffffffffffffffffffffffff16141561121d576040517f08c379a00000000000000000000000000000000000000000000000000000000081526004018080602001828103825260138152602001807f6f776e65722063616e742077697468647261770000000000000000000000000081525060200191505060405180910390fd5b600360009054906101000a900473ffffffffffffffffffffffffffffffffffffffff1673ffffffffffffffffffffffffffffffffffffffff163373ffffffffffffffffffffffffffffffffffffffff1614156112e1576040517f08c379a000000000000000000000000000000000000000000000000000000000815260040180806020018281038252601b8152602001807f486967686573744269646465722063616e74207769746864726177000000000081525060200191505060405180910390fd5b6000600960003373ffffffffffffffffffffffffffffffffffffffff1673ffffffffffffffffffffffffffffffffffffffff1681526020019081526020016000205490506000600960003373ffffffffffffffffffffffffffffffffffffffff1673ffffffffffffffffffffffffffffffffffffffff168152602001908152602001600020819055503373ffffffffffffffffffffffffffffffffffffffff166108fc829081150290604051600060405180830381858888f193505050501580156113b0573d6000803e3d6000fd5b507f2f174ca282119315c59efaf21147aef438581dabdeb498198ae28964373dd8bc3382604051808373ffffffffffffffffffffffffffffffffffffffff1673ffffffffffffffffffffffffffffffffffffffff1681526020018281526020019250505060405180910390a1600191505090565b60025481565b828054600181600116156101000203166002900490600052602060002090601f016020900481019282601f1061146b57805160ff1916838001178555611499565b82800160010185558215611499579182015b8281111561149857825182559160200191906001019061147d565b5b5090506114a691906114aa565b5090565b6114cc91905b808211156114c85760008160009055506001016114b0565b5090565b9056fe63616e27742077697468647261772c2041756374696f6e206973207374696c6c206f70656e63616e277420646f776e6c6f61642c2041756374696f6e206973207374696c6c206f70656ea265627a7a7231582027f5f574413454540ca15289498c1525c6777d5ed17b83e2fb24f0987f0546a264736f6c63430005100032",
  "source": "// SPDX-License-Identifier: MIT\r\npragma solidity >=0.4.22 <0.9.0;\r\n\r\ncontract Auction{\r\n     address internal auction_owner;\r\n     uint256 public auction_end;\r\n     uint256 public highestBid;\r\n     address payable public highestBidder;\r\n\r\n\r\n     constructor (uint _biddingTime)public\r\n     {\r\n         auction_owner=msg.sender;\r\n         auction_end=now+_biddingTime * 1 minutes;\r\n         Nonft.owner=auction_owner;\r\n\r\n    }\r\n     struct nft\r\n     {\r\n         uint id;\r\n         string name;\r\n         address owner; \r\n     }\r\n         nft public Nonft;\r\n\r\n     mapping (uint=>nft) nftokens;\r\n     mapping (uint=> string)ipfsurl;\r\n\r\n\r\n     mapping(address => uint) public bids;\r\n     event BidEvent (address indexed highestBidder,uint256 highestBid);\r\n     event WithdrawalEvent(address withdrawer,uint256 amount);\r\n\r\n\r\n      modifier bid_conditions(){\r\n\r\n        require(now<= auction_end,\"auction timeout\");\r\n        require(bids[msg.sender]+msg.value > highestBid, \"cant't bid, make a higher Bid\");\r\n        require(msg.sender != auction_owner, \"Auction owner cant bid\");\r\n        require(msg.sender != highestBidder, \"Current HighestBidder cant bid\");\r\n\r\n        _;\r\n    }\r\n\r\n   \r\n     modifier only_owner(){\r\n        require(msg.sender == auction_owner);\r\n        _;\r\n    }\r\n    \r\n     modifier highestBidderofAuction(){\r\n        require(msg.sender == highestBidder);\r\n        _;\r\n    }\r\n    \r\n     function AddressId(address user)public pure returns(uint){\r\n     return uint(keccak256(abi.encodePacked(user)))%10000000000;\r\n     }\r\n     \r\n\r\n    function createAsset(uint id,string memory name,string memory nfturl)public only_owner{\r\n        nftokens[id].id=id;\r\n        nftokens[id].name=name;\r\n        ipfsurl[id]=nfturl;\r\n        nftokens[id].owner=msg.sender;\r\n    }\r\n\r\n\r\n     function getAuctionDetails() public view returns (uint256,uint256,address,address) {\r\n       return (auction_end,highestBid,highestBidder,auction_owner);\r\n     }\r\n\r\n    \r\n\tfunction getPdf(uint id) public highestBidderofAuction view returns (string memory nfturl)\r\n\t{        \r\n        require(now> auction_end, \"can't download, Auction is still open\");\r\n\t\treturn(ipfsurl[id]);\r\n       \r\n    }\r\n\r\n//Define Bidding function\r\n    function bid() public payable bid_conditions returns (bool){\r\n        highestBidder=msg.sender;\r\n        bids[msg.sender]=bids[msg.sender]+msg.value;\r\n        highestBid=bids[msg.sender];\r\n        emit BidEvent(highestBidder,highestBid);\r\n        return true;\r\n    }\r\n\r\n    // check auction status\r\n    function auction_status() public view returns(bool state){\r\n        state = now < auction_end;\r\n    }\r\n\r\n    //Withdraw function for loosers\r\n    function getAmount() public returns (bool){\r\n        \r\n        require(now> auction_end, \"can't withdraw, Auction is still open\");\r\n        require(msg.sender != auction_owner, \"owner cant withdraw\");\r\n        require(msg.sender != highestBidder, \"HighestBidder cant withdraw\");\r\n        uint amount = bids[msg.sender];\r\n        bids[msg.sender]=0;\r\n        msg.sender.transfer(amount);\r\n        emit WithdrawalEvent(msg.sender,amount);\r\n        return true; \r\n        }\r\n\r\n    //Withdraw Bid amount to owner address\r\n\r\n    function withdraw() public only_owner returns (bool){\r\n        \r\n        require(now> auction_end, \"can't withdraw, Auction is still open\");\r\n        msg.sender.transfer(highestBid);\r\n        Nonft.owner = highestBidder;\r\n        emit WithdrawalEvent(msg.sender,highestBid);\r\n        return true; \r\n\r\n    }  \r\n\r\n\r\n}",
  "sourcePath": "D:\\Blockchain\\Ethereum\\Auction_Ethereum\\contracts\\Auction.sol",
  "compiler": {
    "name": "solc",
    "version": "0.5.16+commit.9c3226ce.Emscripten.clang"
  },
  "schemaVersion": "3.4.4",
  "updatedAt": "2022-01-28T13:43:51.787Z",
  "networkType": "ethereum",
  "devdoc": {
    "methods": {}
  },
  "userdoc": {
    "methods": {}
  }
}